:100000000C9481000C949E000C949E000C949E0015
:100010000C949E000C949E000C949E000C949E00E8
:100020000C949E000C949E000C949E000C94BB13A8
:100030000C949E000C949E000C949E000C949E00C8
:100040000C949E000C949E000C949E000C949E00B8
:100050000C949E000C949E000C9494144E0668061A
:10006000EA06E807080828083008DD0752554E2040
:100070004F4B00485450204F4B00554950204F4B98
:1000800000434C4B204F4B004E4554204F4B0053E8
:100090005441525400A8EA802A0040000A510A083C
:1000A0004059551801111E111B500B411B411F11C6
:1000B00001511F511B000000000880001A20400061
:1000C000000000510F913941149131411E410E4100
:1000D0001D500F80201015488640147805708551FA
:1000E00015510E5195518E21908120501548445044
:1000F000C528C0282009504114208011110000009B
:10010000100011241FBECFEFD4E0DEBFCDBF11E041
:10011000A0E0B1E0E8E1F1E302C005900D92A23C5D
:10012000B107D9F714E0A2ECB1E001C01D92AE33E3
:10013000B107E1F70E94AF120C948A180C940000EA
:10014000CF93DF93C091BD02D091BE028091BA02DD
:1001500086FF08C0CE014C9660E070E040E050E0C1
:100160000E94870C8C8D9D8D8C31910509F18D310C
:10017000910530F4009751F04B9709F042C00AC046
:100180008D31910519F14E97E1F52EC08BE190E08C
:100190009D8F8C8FCE014C9660E071E041E150E084
:1001A0000E94D80D882379F18CE190E09D8F8C8F8F
:1001B000CE014C9662E171E049E150E00E94D80D19
:1001C000882309F18DE190E09D8F8C8FCE014C96B4
:1001D0006CE271E042E050E00E94D80D882399F073
:1001E0008EE190E09D8F8C8FCE014C966FE271E096
:1001F0004FE250E00E94D80D882329F080E18093DF
:10020000BA021D8E1C8EDF91CF91089580E090E59B
:100210000E947E0208959093C9018093C8010895B9
:10022000FC015381560F5093B902272F3327428187
:10023000420F4093B802A181A093B702E081E093FE
:10024000B602842F90E08217930748F48A2F8F5FBD
:100250008093B702882319F4EF5FE093B602852FED
:1002600090E070708617970790F4842F8F5F8093CB
:10027000B802882361F48091B7028F5F8093B70240
:10028000882329F48091B6028F5F8093B602089587
:10029000FC0161507040680F791F20E030E00EC013
:1002A000508140E08181DA01A80FB11D2A0F3B1F68
:1002B0002A173B0710F42F5F3F4F3296E617F707D8
:1002C00078F3E617F70749F4908180E0280F391F8B
:1002D0002817390710F42F5F3F4F832F922F08956F
:1002E000ECE0F3E040E050E0308120E08181B901B2
:1002F000680F711D460F571F4617570710F44F5FC1
:100300005F4F329673E0EF31F70770F383E0EF3120
:10031000F80751F4908180E0480F591F481759079A
:1003200018F44F5F5F4F06C04115510519F42FEFC8
:100330003FEF02C0342F252FC901089580910F038C
:10034000682F70E06451704090910E0380E0680F58
:10035000791FAB014A5F5F4FE8E1F3E0308120E0B5
:100360008181D901A80FB11D4A0F5B1F4A175B0796
:1003700010F44F5F5F4F3296B3E0EF31FB0770F33D
:1003800083E0EF31F80749F4908180E0480F591F6E
:100390004817590710F44F5F5F4F615E7C4FE0E2F2
:1003A000F3E00EC0308120E08181D901A80FB11D9A
:1003B0004A0F5B1F4A175B0710F44F5F5F4F32967F
:1003C000E617F70778F3E617F70751F4908180E016
:1003D000480F591F4817590718F44F5F5F4F06C061
:1003E0004115510519F42FEF3FEF02C0342F252F8F
:1003F000C90108951092F1021092F0021092D802F1
:1004000081E08093D00180E094E09093CF018093CD
:10041000CE010895DC014091D802E091C302F09131
:10042000C4022091CE013091CF012F5F3F4F5DE795
:100430002030350710F020E030E1922F832F442345
:1004400019F0E817F90789F32093CE013093CF0113
:1004500080E090E0442329F41092D001EFEBF2E029
:100460000AC0473011F48FEB92E0FC0181E08093E9
:10047000D001309779F182E0818F8091CA01848721
:100480008091CB0185878091CC0186878091CD01B9
:10049000878786EF90E0938B828B958B848B81E0AE
:1004A00090E0918B808B138E81E0828F83E0808F30
:1004B000168A80E1878B34832583778366838D91C9
:1004C0009C9111979183808312968D919C911397A3
:1004D00093838283CF0108952091F0023091F1023D
:1004E0002817390739F41092D0011092F1021092B6
:1004F000F002089581E08093D00108959C018091DD
:10050000F0029091F102892B39F41092D0013093CE
:10051000F1022093F002089581E08093D0010895C4
:10052000BC018091BD029091BE0208960E9410010C
:10053000E091BD02F091BE028091B6028087809169
:10054000B70281878091B80282878091B902838740
:100550000895282F892F922F0895AC01FB011616BC
:10056000170684F460932C04F0932D042091B402B8
:100570003091B5028217930729F0C901BA01AF0182
:100580000E944F1508950F931F93CF93DF93C0914F
:10059000BD02D091BE0224E333E03093BC0220932D
:1005A000BB023093B5022093B402833059F4898D95
:1005B0008F70833009F0EEC588899989892B09F0FD
:1005C000E9C589C0823009F08AC08091CD018F5F72
:1005D0008093CD01882399F48091CC018F5F809323
:1005E000CC01882361F48091CB018F5F8093CB0194
:1005F000882329F48091CA018F5F8093CA011092E9
:10060000B3021092B20210922D0410922C04298D84
:10061000273011F0253041F48A8D8F5F8A8F88371B
:1006200009F0B8C5198EB6C5222309F4B3C5888967
:100630009989892B09F44BC08A8D81508A8F8F5FED
:1006400009F0A8C53B8D383029F02150223048F4FC
:10065000353039F4198E80E88093BA020E94A000E8
:1006600050C4353010F080E307C083E090E002C052
:10067000880F991F3A95E2F78A8F8B8D8F5F8B8F4A
:10068000898D90E08F70907083309105D1F0843027
:10069000910544F48130910509F42DC2029709F0C7
:1006A00079C50CC08630910509F4BEC38830910528
:1006B00009F4BAC3049709F06DC5B6C310922D03AF
:1006C0001DC284E08093BA020E94A0004FC42F7024
:1006D000233009F05FC588E08093BA0206C489011F
:1006E0000852104080910C03853409F053C5909155
:1006F0000E0380E020910F03AC01420F511D809149
:10070000B2029091B3028417950708F443C5509341
:10071000B3024093B2028091120390E08F73907005
:10072000892B09F037C580911303882309F032C55E
:100730002091FA023091FB0280915F01909160015B
:100740002817390731F48091FC029091FD02892B22
:10075000A1F080911C0390911D038217930709F06B
:1007600019C520911E0330911F038091FC029091C6
:10077000FD022817390709F00DC50E9470018F5F2F
:100780009F4F09F007C5809115038630D1F1813064
:1007900009F000C580912003883009F0FBC4109255
:1007A00020038091220390912303EFEF873F9E0760
:1007B00010F0099601C008969093230380932203BA
:1007C000809118039091190390931D0380931C034B
:1007D00080911A0390911B0390931F0380931E0333
:1007E0008091FA029091FB02909319038093180371
:1007F0008091FC029091FD0290931B0380931A0359
:10080000CDC40E949E018F5F9F4F09F0C3C4CFEB00
:10081000D2E0898D882329F120912203309123038E
:100820008C819D8128173907E1F4209120033091B4
:1008300021038E819F812817390799F4209118038D
:1008400030911903888199812817390751F4209133
:100850001A0330911B038A819B812817390709F4F9
:1008600065C1E19622E0CF3BD20799F290F28091E8
:100870002D038F738230F1F4809122039091230332
:100880009093D3018093D2011092D00141E00EC029
:100890002091D2013091D3018091F0029091F10228
:1008A0002817390709F470C04093D0018091D00116
:1008B000882371F380912D0382FD6CC484E1F801DB
:1008C00081A388E290E09093B3028093B20280E526
:1008D00080A39091270380912B03838F309126036F
:1008E00080912A03828F368F4091250380912903BE
:1008F000818F458F209124032093D001809128037C
:10090000808F248F9F5F978F992361F4832F8F5F50
:10091000868F882339F4842F8F5F858F882311F485
:100920002F5F248F20912003309121033093D30136
:100930002093D2018091220390912303F801958B9B
:10094000848B378B268B8091180390911903909399
:100950001D0380931C0380911A0390911B039093B5
:100960001F0380931E038091FA029091FB029093E3
:100970001903809318038091FC029091FD029093DB
:100980001B0380931A03C8C31092D001C0E0D0E0CB
:1009900021E014C08091D802882319F4CFEBD2E073
:1009A00014C0873049F4209729F09091D9028A8D9C
:1009B000891710F4CFEBD2E02093D0018091D001C1
:1009C000882341F3209709F4E5C3D093BE02C09376
:1009D000BD0283E08A8F888F1E8A84E08F8B1B8EF6
:1009E00080912203909123039D838C838091200327
:1009F000909121039F838E83809118039091190316
:100A00009983888380911A0390911B039B838A8327
:100A100081E0898F8091CA018C878091CB018D877D
:100A20008091CC018E878091CD018F8781E090E00D
:100A3000998B888B809127038B87809126038A87E7
:100A400080912503898780912403888781E090E045
:100A50000E94900280912C0390E0807F90708135FD
:100A600091050CF448C01092D00133C0F901E25056
:100A7000FD4F86A98093D1018823E9F1813021F4CB
:100A80004F5F4093D00125C08230B9F487A98430EC
:100A9000A1F430AD20E081AD90E0822B932B9093B8
:100AA000D3018093D201873F910510F086EF90E04B
:100AB0009B8B8A8B9D8B8C8B1EC09091D001E92FD4
:100AC000F0E0E250FD4F87A98823A9F0890F8093B9
:100AD000D0014091D001242F30E080912C038295E9
:100AE0008F7090E00597880F991F880F991F28171E
:100AF00039070CF4BBCF80E180932D0380912D0347
:100B0000826080932D0382E08093340384E080939D
:100B100035031092360386EF809337038CE290E022
:100B20009093B3028093B20280E6A4C2D093BE0237
:100B3000C093BD021092BA0280912D03482F50E05D
:100B400082FF03C0198E80E23EC280912C03829501
:100B50008F70880F880F8093D0012091B20230915E
:100B6000B30224513040281B31093093B302209343
:100B7000B202898D8F70823029F44F7350704231E8
:100B8000510509F1232B39F480912D0390E08370F6
:100B90009070892BC1F0909124038885981709F0F3
:100BA0005FC2909125038985981709F059C29091E9
:100BB00026038A85981709F053C2909127038B85E5
:100BC000981709F04DC280912D0384FF51C06889A8
:100BD00079896115710509F44BC0CE010C960E940C
:100BE0001001209128038091B602281709F040C017
:100BF000909129038091B7029817D1F590912A031B
:100C00008091B8029817A1F590912B038091B902B9
:100C1000981771F52C878091B7028D878091B80263
:100C20008E878091B9028F878B8D8823D1F42E898E
:100C3000988D8A8D981B822F869586958695981B10
:100C4000392F320F3E8B8F89282F26952695821BB0
:100C500097FD9195890F8F8B369536953695830F35
:100C6000888F81E08093BA02888D8A8F198A188ACA
:100C7000898D282F30E0C901AA2797FDA095BA2FAA
:100C80008F709070A070B070FC013197E830F10562
:100C900008F080C2E25DFF4F0C9470188091BA0298
:100CA00080FF78C283E0898F80E48093BA02198A3A
:100CB000188A2091B2023091B3022115310509F44E
:100CC00010C182E48093BA02C9010E94900209C156
:100CD0008091BA0280FF73C080912D038F7382319F
:100CE00009F06DC080912C0390E0807F9070813579
:100CF00091050CF448C01092D00133C0F901E250C4
:100D0000FD4F86A98093D1018823E9F1813021F438
:100D10004F5F4093D00125C08230B9F487A9843059
:100D2000A1F430AD20E081AD90E0822B932B909325
:100D3000D3018093D201873F910510F086EF90E0B8
:100D40009B8B8A8B9D8B8C8B1EC09091D001E92F41
:100D5000F0E0E250FD4F87A98823A9F0890F809326
:100D6000D0014091D001242F30E080912C03829556
:100D70008F7090E00597880F991F880F991F28178B
:100D800039070CF4BBCF83E0898F809124038887D7
:100D9000809125038987809126038A878091270384
:100DA0008B8781E090E00E94900282E48093BA02F7
:100DB000198A188A1092B3021092B20292C080E28D
:100DC0008093BA020E94A000E091BD02F091BE02A1
:100DD000118E70CD80912D0380FF2AC024FD28C084
:100DE00088899989892B09F0D5C18091B2029091A7
:100DF000B30201960E9490022091BA02822F806174
:100E00008093BA028091B2029091B302892B19F0BB
:100E100022612093BA020E94A00081E090E0998BA9
:100E2000888B88E0898F1B8E81E180932D031BC105
:100E300085FF21C060913203362F20E040913303BB
:100E400050E0242B352B8091BB029091BC02820F85
:100E5000931F9093BC028093BB02962F80E0842B5B
:100E6000952B2091B2023091B302281B390B30939D
:100E7000B3022093B2022091B2023091B302211545
:100E8000310559F0898D84FD08C08091BA028260D5
:100E90008093BA02C9010E94900290912E0380E0D3
:100EA00020912F03820F911D9093D3018093D20143
:100EB0002C893D892817390710F0892B21F43093AC
:100EC000D3012093D2018091D2019091D3019B8BC9
:100ED0008A8B8091BA0290E083709070892B09F41C
:100EE00059C110922D0410922C040E94A0008091F0
:100EF000BA02282F85FF07C010922D0410922C04EF
:100F0000198E84E192CF84FF0AC010922D041092B2
:100F10002C0481E090E0998B888B84E083CF8091D2
:100F20002C0490912D04892B01F120FF02C0198A15
:100F3000188A888999890097A1F42A893B89809128
:100F40002C0490912D042817390720F430932D0498
:100F500020932C0480912C0490912D04998B888BE4
:100F600004C090932D0480932C041B8E8091B402B6
:100F70009091B5029093BC028093BB0280912C04A7
:100F800090912D04892B59F088899989009739F01F
:100F900088969093B3028093B20288E10BC080914F
:100FA000BA0281FFF7C088E290E09093B302809389
:100FB000B20280E180932D035CC08091BA0280FF71
:100FC000E9C0198E80E18093BA020E94A000E2C0BD
:100FD0008091B2029091B302009711F00E949002AA
:100FE00080912D039091BA0280FF0BC090FF06C044
:100FF00087E0898F1A8E198A188A19C086E0898F2E
:1010000016C090FF1EC085E0898F198A188AC2C059
:101010008091B2029091B302009711F00E94900269
:1010200080912D0380FF0DC087E0898F1A8E81E0AB
:1010300090E00E94900280E18093BA020E94A0009A
:101040000FC08091B2029091B302892B49F4A2C0E3
:101050008091BA0280FF9EC087E0898F1A8E9AC065
:1010600080E1F80181A388E290E09093B30280933D
:10107000B20280E580932C038885809328038985BC
:10108000809329038A8580932A038B8580932B0381
:101090008C85809324038D85809325038E85809392
:1010A00026038F858093270386E0809315038C8128
:1010B0009D8190932103809320038E819F81909343
:1010C0002303809322038091FA029091FB02909374
:1010D0001903809318038091FC029091FD02909374
:1010E0001B0380931A038881998190931D03809339
:1010F0001C038A819B8190931F0380931E03898D1B
:1011000084FF05C010922F0310922E0305C0109289
:101110002E0386EF80932F0380E480931403809145
:10112000B30280930E038091B20280930F0310925A
:1011300033031092320310923103109230030E9455
:101140009E0180959095909331038093300385E4C0
:1011500080930C0310920D0310921303109212034C
:101160008091C8019091C90101969093C901809323
:10117000C8019093100380931103109217031092EB
:1011800016030E94700180959095909317038093A9
:10119000160304C01092B3021092B2021092BA0267
:1011A000DF91CF911F910F910895A0E0B0E0EBED9A
:1011B000F8E00C944418DC01062FD72E1092300270
:1011C00060E01BE02BC0619FF0011124EC52FE4F48
:1011D000408151814115510501F122813381211551
:1011E0003105D9F08D919C91119784179507A9F439
:1011F00012968D919C9113978217930771F46093C7
:101200003002EF012496802F9D2D9C01D90186E0AC
:101210000D9009928150E1F767C06F5F683098F2D6
:101220001092300220E03BE011C0239FF001112416
:10123000EC52FE4F80819181892B39F48281938118
:10124000892B19F4209330023CC02F5F283068F3BB
:10125000209330022830A9F5109233021092310207
:1012600010913202C12FD0E060E070E040E08BE0EE
:10127000E82EF12C18C0842F90E08E9DF0018F9DF8
:10128000F00D9E9DF00D1124EC52FE4F52859E01F3
:10129000251B3109872F90E0821793071CF4712FCB
:1012A000751B642F4F5F483030F3609331027093A9
:1012B0003302609330028BE0689FF0011124EC52FE
:1012C000FE4F8D919D910D90BC91A02DEF018993C2
:1012D0009993A993B993202F3D2DC901DC0186E094
:1012E0000D9009928150E1F7809132028287CDB74B
:1012F000DEB7E7E00C946018CF93DF938091B202E1
:101300009091B3028A9728F41092B3021092B2021D
:10131000A6C01092B3021092B202CEEFD2E080913A
:1013200012039091130321E08030920729F080503E
:10133000924009F094C076C0209124033091250397
:101340008091FA029091FB022817390709F087C0B3
:1013500020912603309127038091FC029091FD0299
:101360002817390709F07BC0CE014C96BE016A5E92
:101370007F4F0E94D50880E092E090931303809302
:101380001203DE019096FE01769686E001900D92A2
:101390008150E1F7A4E1B3E0E2ECF1E086E00190F6
:1013A0000D928150E1F7A4E0B3E0E2ECF1E086E0D9
:1013B00001900D928150E1F7EEEFF2E0DF0190969F
:1013C00086E00D9001928150E1F780911A0390918F
:1013D0001B03909325038093240380911C03909119
:1013E0001D0390932703809326038091FA02909126
:1013F000FB0290931B0380931A038091FC0290914F
:10140000FD0290931D0380931C0388E096E0909367
:101410000B0380930A038AE290E09093B3028093D7
:10142000B2021DC020912403309125038091FA025D
:101430009091FB022817390791F4209126033091EF
:1014400027038091FC029091FD022817390739F497
:10145000CE014C96BE016A5E7F4F0E94D508DF9197
:10146000CF91089540911C0350911D038091630119
:10147000909164014817590789F480911E03909157
:101480001F038F5F9F4F51F4AEEFB2E0E7E6F1E04C
:1014900086E001900D928150E1F7CDC08091FA0273
:1014A0009091FB02842795272091F6023091F70254
:1014B00082239323892B91F460911E0370911F0363
:1014C0008091FC029091FD02862797272091F802D7
:1014D0003091F90282239323892B89F08091F202C3
:1014E0009091F30290932D0280932C028091F4024C
:1014F0009091F50290932F0280932E0208C0509392
:101500002D0240932C0270932F0260932E021092B2
:10151000300260912C0270912D0240912E02509168
:101520002F0220E03BE013C0239FF0011124EC5276
:10153000FE4F808191816817790741F48281938100
:101540004817590719F4209330026DC02F5F2830D7
:1015500058F320933002283009F065C08EEF92E0F6
:101560006FEF70E046E050E00E945815EEE1F3E0C6
:1015700086E0DF011D928A95E9F77A97A2ECB1E047
:1015800086E00D9001928150E1F7A4E1B3E0E2EC36
:10159000F1E086E001900D928150E1F780912C02FC
:1015A00090912D02909325038093240380912E0225
:1015B00090912F0290932703809326038091FA0243
:1015C0009091FB0290931B0380931A038091FC027D
:1015D0009091FD0290931D0380931C0380E091E0A5
:1015E000909313038093120390930D0380930C0345
:1015F00088E090E090930F0380930E0386E0809341
:10160000100384E08093110388E096E090930B032D
:1016100080930A0384E393E09093BC028093BB021F
:101620008AE290E01CC0AEEFB2E0349686E0019012
:101630000D928150E1F7A4E0B3E0E2ECF1E086E046
:1016400001900D928150E1F788E090E090930B03B8
:1016500080930A038091B2029091B3020E96909308
:10166000B3028093B2020895809132028F5F80931B
:101670003202109230024BE01FC0249FF00111246F
:10168000EC52FE4F8281938120813181822B932BFA
:10169000892B69F08091320290E02285821B9109AA
:1016A0008837910524F01082118212821382809172
:1016B00030028F5F80933002209130022830E8F2B0
:1016C0000895109230029BE00CC0899FF001112414
:1016D000EC52FE4F10821182128213828F5F809330
:1016E000300280913002883080F30895FC01DB01E4
:1016F00020E040E05AE030E080813F5F3530C9F0C3
:101700008E3211F0882319F42D9320E008C0982F11
:1017100090539A3070F4259F202D1124290F319673
:101720008E3211F0882341F74F5F443021F781E07A
:10173000089580E00895FC01228933898089918988
:10174000281B390BC9010895FC0184859585892BD7
:1017500011F081E008958489823021F483E0848B44
:1017600080E008958091BA0290E096958795817007
:101770000895DC0112968D919C911397009729F0A2
:101780008B51914009F0BDC01DC052962D913C91E6
:10179000539718968D919C9119971F969C938E93B1
:1017A0001E9751963C932E9350971C968D919C9129
:1017B0001D97892B09F060C08BE191E013969C93F3
:1017C0008E9312971C968D919C911D97892B69F48D
:1017D00054968C915497823021F483E054968C93E4
:1017E0008EC08091BA0281FF8AC082E054968C93A9
:1017F00054978091BB029091BC0217969C938E9354
:1018000016978091B2029091B3021D969C938E938D
:101810001C9732C01696ED91FC91179720811E9669
:10182000ED91FC911F97208316968D919C911797AF
:10183000019617969C938E9316971E968D919C9168
:101840001F9701961F969C938E931E971C968D91C1
:101850009C911D9701971D969C938E931C97509673
:101860008D919C915197019751969C938E9350978F
:10187000261711F482E02FC050968D919C915197BC
:10188000892B31F01C968D919C911D97892B11F617
:101890001C968D919C911D97892BA9F480E01BC00B
:1018A0001696ED91FC9117978191215030401D962D
:1018B0003C932E931C971796FC93EE9316978617DE
:1018C00011F483E008C01C962D913C911D972115C1
:1018D000310531F781E081FF68CF52962D913C911F
:1018E000539750968D919C9151972817390749F439
:1018F00054961C92549713961C921E92129780E055
:10190000089513961C921E92129782E00895FC018E
:10191000148A1586148671876087538B428B77876C
:101920006687518B408B1182108213821282089538
:10193000CF93DF93EC018A819B81009729F0865336
:10194000914009F092C010C02A893B898885998509
:101950009F878E87398B288B8C859D85892B21F5D8
:1019600086E391E09B838A838C859D85892B51F446
:101970008C89823019F483E08C8B75C08091BA0217
:1019800081FF71C08DE691E00E94741582E08C8B1E
:101990008091BB029091BC029F838E838091B202A2
:1019A0009091B3029D878C87EC85FD8528893989C4
:1019B000E217F307F0F46E817F818E859F85AF017A
:1019C0000E944F158E859F852C853D85820F931F24
:1019D0009F878E8788899989821B930B998B888B27
:1019E0008E819F81820F931F9F838E831D861C860D
:1019F000B3CF8E859F856E817F81E217F307B1F4A7
:101A0000AF010E944F158E859F852C853D85820FE5
:101A1000931F9F878E87198A188A8E819F81820FD4
:101A2000931F9F838E831D861C8625C0A9010E945B
:101A30004F158E859F8528893989820F931F9F872F
:101A40008E878C859D85821B930B9D878C878E81CD
:101A50009F81820F931F9F838E83198A188A0BC0E0
:101A60001C8A1B821A8280E003C01B821A8282E0D9
:101A7000DF91CF9108952A893B8988899989281710
:101A8000390799F7EDCFCF93DF93EC018C8986303E
:101A900031F48091BA0282FD02C080E013C02A8531
:101AA0003B85E091BD02F091BE02628973898C8111
:101AB0009D816217730708F0B9010E94AD0286E0AC
:101AC0008C8B81E0DF91CF910895CF92DF92EF92DE
:101AD000FF921F93CF93DF93EC017B016A018A8110
:101AE0009B81009729F08E3E910509F056C01EC0DB
:101AF0006115710521F41B821A8281E051C0CA016F
:101B0000FB0109959B878A878091BB029091BC025B
:101B10009D838C831C8A8091BA0282FF03C0C60118
:101B2000F70109958EEE90E09B838A838C8986303D
:101B300031F58091BA0280FF22C08A859B85E091B1
:101B4000BD02F091BE02428953892C813D81481724
:101B5000590758F4841B950B9B878A878289938940
:101B6000280F391F3D832C8306C0280F391F3D8362
:101B70002C831B861A8681E08C8B11E001C010E05B
:101B8000CE010E94430D182311F480E009C08A851C
:101B90009B85892B09F0BFCF1C8A1B821A8282E0A9
:101BA000DF91CF911F91FF90EF90DF90CF9008953C
:101BB0001F93CF93DF93EC018A819B81009729F0DB
:101BC0008F3C910509F048C011C04115510521F421
:101BD0001B821A8281E043C07D836C835B874A87C6
:101BE0001C8A35C08FEC90E09B838A838C89863079
:101BF00031F58091BA0280FF22C08A859B85E091F1
:101C0000BD02F091BE02428953892C813D81481763
:101C1000590758F4841B950B9B878A87828993897F
:101C2000280F391F3D832C8306C0280F391F3D83A1
:101C30002C831B861A8681E08C8B11E001C010E09A
:101C4000CE010E94430D182311F480E008C08A855C
:101C50009B85892B39F61C8A1B821A8282E0DF91D0
:101C6000CF911F910895FC01808191812281338160
:101C7000820F931F9183808308950F931F938C018C
:101C80000E94DD1340E050E0F80120813181821B89
:101C9000930B228133818217930710F041E050E0CB
:101CA000CA011F910F9108950F931F938C010E94F9
:101CB000DD13F801918380831F910F9108950F9395
:101CC0001F938C01FC01738362830E94DD13F80172
:101CD000918380831F910F910895EEE3F2E080E8F5
:101CE00080833B9692E0E639F907D1F70895EEE359
:101CF000F2E0808187FD02C08F5F80833B9682E0A7
:101D0000E639F807B1F70895DC016D917C911197E0
:101D1000E4E3F2E040E050E080819181861797078C
:101D2000B1F42281338112968D919C9113972817DB
:101D3000390769F48BE090E0489FF001499FF00D6E
:101D4000589FF00D1124EC5CFD4F41F408954F5F56
:101D50005F4F3B9648305105F9F608951286089575
:101D6000DC016D917C911197E4E3F2E040E050E0FA
:101D70008081918186179707B1F422813381129671
:101D80008D919C9113972817390769F48BE090E0A7
:101D9000489F9001499F300D589F300D11242C5CB5
:101DA0003D4F41F40AC04F5F5F4F3B9648305105AD
:101DB000F9F603C02C5F3F4F02C020E030E0C901BC
:101DC00008950F931F93CF93DF938C01EB018DB791
:101DD0009EB70E970FB6F8949EBF0FBE8DBFEDB79E
:101DE000FEB7319680E891E0ADB7BEB712969C93EE
:101DF0008E931197888182831382898184831582CF
:101E00008A81868317828B81808711868C81828765
:101E100013868D81848715860E945F15E4E3F2E0C6
:101E200040E050E060E070E0B0E08DB79EB70E9605
:101E30000FB6F8949EBF0FBE8DBFA285A038D9F013
:101E400020813181888199812817390739F42281CD
:101E500033818A819B812817390769F0BA1710F0FE
:101E6000AB2F01C0BA014F5F5F4F3B964830510521
:101E700019F0BA2FE2CFBA018BE090E0689F900191
:101E8000699F300D789F300D1124F901EC5CFD4FF6
:101E90001286D8018D919C9111979183808312961F
:101EA0008D919C91139793838283D901A85CBD4F38
:101EB000FE0186E001900D928150E1F7DF91CF9114
:101EC0001F910F910895FB01282F81FD02C090E31F
:101ED00001C09AE222FD9EE228989EBD0DB407FE45
:101EE000FDCF08C080818EBD0DB407FEFDCF3196B9
:101EF0004150504041155105A9F7289A0895FB011A
:101F000041155105B1F081FD02C090E301C098E296
:101F100082FD9CE228989EBD0DB407FEFDCF1EBC3D
:101F20000DB407FEFDCF8EB5819341505040B9F7F7
:101F3000289A089528988EBD0DB407FEFDCF6EBD7A
:101F40000DB407FEFDCF8EB5289A0895A4E0B0E049
:101F5000ECEAFFE00C9449187C836B8328988EBDD3
:101F60000DB407FEFDCFFE013396DE0111969E01F2
:101F70002B5F3F4F80818EBD0DB407FEFDCF8EB528
:101F80008D933196E217F307A9F7289A89819A81F0
:101F90002496E2E00C946518282F982F907E80916B
:101FA0008C02981739F1992339F4289880EC8EBD6A
:101FB0000DB407FEFDCF1AC0903239F4289882EC98
:101FC0008EBD0DB407FEFDCF11C0903439F42898B2
:101FD00084EC8EBD0DB407FEFDCF08C0903641F4F1
:101FE000289886EC8EBD0DB407FEFDCF8EB5289ADD
:101FF00090938C022F71822F80680E94A60F089503
:10200000A6E0B0E0E6E0F0E10C9449184B835C8375
:102010006D837E8328988EBD0DB407FEFDCFFE0133
:102020003396DE0111969E012A5F3F4F80818EBD5F
:102030000DB407FEFDCF8EB58D933196E217F307F1
:10204000A9F7289A89819A81BC0180E090E02696C0
:10205000E2E00C946518A6E0B0E0E1E3F0E10C9456
:102060004918282F7E836D83982F907E913698F59E
:1020700080918C02981739F1992339F4289880ECD3
:102080008EBD0DB407FEFDCF1AC0903239F42898EA
:1020900082EC8EBD0DB407FEFDCF11C0903439F433
:1020A000289884EC8EBD0DB407FEFDCF08C0903695
:1020B00041F4289886EC8EBD0DB407FEFDCF8EB599
:1020C000289A90938C022F716D817E81822F80647B
:1020D0000E94A60F0EC0FE01319689838D818183F7
:1020E0008E81828349815A816B817C8182E20E9448
:1020F00000102696E2E00C946518A6E0B0E0E3E854
:10210000F0E10C944918AC01282F207E2136A0F56F
:1021100080918C02281739F1222339F4289880EC19
:102120008EBD0DB407FEFDCF1AC0203239F42898B9
:1021300082EC8EBD0DB407FEFDCF11C0203439F402
:10214000289884EC8EBD0DB407FEFDCF08C0203664
:1021500041F4289886EC8EBD0DB407FEFDCF8EB5F8
:10216000289A20938C02842F8F7160E070E00E9487
:10217000A60F9A8389830FC060E070E080E20E941E
:1021800000106B837C838D839E83FE013396818157
:10219000898382818A8389819A812696E2E00C94E0
:1021A00065180F931F938B01682F70E0716084E5B1
:1021B00090E00E942B1086E690E0B8010E942B1060
:1021C0008AE690E00E947D1080FDFACF1F910F916A
:1021D0000895682F70E0716084E590E00E942B10F4
:1021E00082E590E061E070E00E942B108AE690E0CA
:1021F0000E947D1080FDFACF82E590E060E070E003
:102200000E942B1088E690E00E947D100895CF93E5
:10221000DF938CE190E00E947D1093FF33C08091AA
:102220008C02882351F0289880EC8EBD0DB407FEF7
:10223000FDCF8EB5289A10928C028CEB60E078E08E
:102240000E94A60F82E490E00E947D10EC018AE1DA
:1022500090E00E947D1092FF09C084E490E065E167
:1022600070E00E942B10BE01616008C084E490E021
:1022700062E170E00E942B10BE016E7F82E490E06C
:102280000E942B108AE190E00E947D1090FF06C012
:102290008EE190E062E070E00E94CC0FDF91CF9180
:1022A00008950F931F938C0182E0A8010E94630F91
:1022B00088E890E060E070E00E942B1082E090E0FF
:1022C000B8010E942B100E9407111F910F910895D1
:1022D000A6E0B0E0EEE6F1E10C944518182F092FC6
:1022E0007B018CE190E00E947D1086FD03C000E040
:1022F00010E044C060918D0270918E028AE890E0F7
:102300000E942B1084E06DE872E042E050E00E94F1
:102310007F0F84E0BE016F5F7F4F46E050E00E9478
:102320007F0F49815A81212F302FC9018C01481715
:10233000590708F48A0184E0B701A8010E947F0FC1
:1023400060918D0270918E0286E06030780729F4EA
:102350009EEFE92E9FE5F92E06C08EEFE82E8FEF57
:10236000F82EE60EF71E8EE190E060E071E00E942C
:10237000CC0F86E090E0B7010E942B10C801269692
:10238000E6E00C9461188EE190E00E947D10969535
:1023900087958095817008958AE190E00E947D1074
:1023A000892F81700895A2E0B0E0E9EDF1E10C948D
:1023B000471810928C02289A209A289A299A219AD2
:1023C0002398229A209A8CB580618CBD8CB5877F2A
:1023D0008CBD8CB58F7D8CBD8CB58E7F8CBD8CB546
:1023E0008D7F8CBD8DB581608DBD8CB580648CBDBD
:1023F00008E512E0779A86E190E064E372E10E94DA
:102400002B1086E190E00E947D108453924199F751
:102410008EE690E060E170E00E94CC0F10928C029A
:102420008AE190E00E947D1080709A7180509A41FC
:10243000B9F7C8010197F1F786E190E00E947D109D
:10244000892BC1F680ED97E00197F1F780E096E0E7
:1024500090938E0280938D0280E090E060E070E0C7
:102460000E942B1084E090E060E076E00E942B1048
:1024700086E090E06EEF7FE50E942B1086E190E011
:1024800060E070E60E942B1088E190E061E070E669
:102490000E942B1084E690E00E947D1089839A832D
:1024A0008E010F5F1F4F80932E04F801818180936E
:1024B0002F0482E690E00E947D1089839A838093A6
:1024C0003004F80181818093310480E690E00E941D
:1024D0007D1089839A8380933204F80181818093EF
:1024E000330484E061EE75E00E94D1108EE190E04B
:1024F00061E070E00E94CC0F2296E4E00C94631837
:10250000DC0180912E04FD01819380912F041196AE
:102510008C93DF011196809130048183FD01319607
:102520008091310411968C93809132048183809143
:1025300033048283089508950E94D31108958091F1
:10254000B2029091B3026EEF72E00E9451110895B1
:102550008CE291E06EEF72E00E9468110895A8E0AD
:10256000B0E0E5EBF2E10C94411878940E943C1441
:102570008FE890E00E943A1588E893E128EC30E07B
:10258000F9013197F1F70197D9F70E949C1288E879
:1025900090E00E943A1588E893E128EC30E0F901D8
:1025A0003197F1F70197D9F70E94D31381E890E0B2
:1025B0000E943A1588E893E128EC30E0F901319760
:1025C000F1F70197D9F7CE0101966FE070E00E9414
:1025D0005F0ECE0105966CE271E00E945F0E0E94D4
:1025E000FA018AE790E00E943A1588E893E128EC26
:1025F00030E0F9013197F1F70197D9F790912F0465
:1026000020913004309131044091320450913304D0
:1026100080912E048093C2019093C3012093C40142
:102620003093C5014093C6015093C7010E94060133
:1026300083E790E00E943A1588E893E128EC30E0C7
:10264000F9013197F1F70197D9F720EC38EA309387
:10265000FB022093FA0281E09AE59093FD028093B9
:10266000FC023093F3022093F20281E091E0909318
:10267000F5028093F4028FEF9FEF9093F70280931F
:10268000F6028FEF90E09093F9028093F8028CE6C7
:1026900090E00E943A1588E893E128EC30E0F901D7
:1026A0003197F1F70197D9F76E010894C11CD11C3D
:1026B0009FEBA92E92E0B92E85E0E82EF12CEC0ECE
:1026C000FD1E0E94A8129093B3028093B202892B40
:1026D00069F100910A0310910B0380E098E00E94D9
:1026E000A9020817190761F481E00E94C3028091D2
:1026F000B2029091B302892B21F30E94320A13C0D7
:1027000000910A0310910B0386E098E00E94A90251
:1027100008171907B1F60E947C098091B2029091C6
:10272000B302892B71F20E949F12CBCFC6010E9487
:102730003D0E892B31F2C6010E94330EB092BE02CB
:10274000A092BD0282E00E94C3028091B2029091E9
:10275000B302892B21F00E94320A0E949F12C70106
:102760000E943D0E892B09F4ACCFC7010E94330EA5
:102770000E94340BA6CF1F920F920FB60F92112416
:102780008F939F9380918F029091900201969093E6
:10279000900280938F02A89A9F918F910F900FBE05
:1027A0000F901F901895EEE6F0E0808181608083A5
:1027B00084B5856084BD78940895F8947894809168
:1027C0008F02909190020895A0E0B0E0EAEEF3E16C
:1027D0000C9441188C016B0197FF09C08DE2FB013D
:1027E0008083109501951F4FC1E0D0E004C0009791
:1027F00059F0C0E0D0E080E1E82E87E2F82EE0E07A
:10280000F0E0AA24BB2410C080E3FB018083C1E078
:10281000D0E029C02E9DC0012F9D900D3E9D900DB2
:102820001124081B190B7B01C801B7010E9426184F
:102830009B01309719F4161617064CF4F601EC0FAD
:10284000FD1F822F805D80832196E1E0F0E0C701CB
:102850006AE070E00E9426180894A11CB11C85E073
:10286000A816B104B9F6CC0DDD1D1882C601CDB78E
:10287000DEB7EAE00C945D188FE08093E70087EB09
:102880008093E50083E08093E60088EC8093E40089
:102890000895DC0120E030E041E05FEFE22F9D9100
:1028A0009B3788F4913638F49923E1F0892F8A52C6
:1028B000863348F401C09F7D9A52F901E956FD4FD5
:1028C0009083965D04C0F901E956FD4F508399232A
:1028D00041F02F5F3F4F842F8F5F853111F0482FDC
:1028E000DDCFE42F80E0E73008F081E080939102B3
:1028F0008E2F2FEF9E2F995FE82FF0E0E956FD4FC6
:1029000020838F5F8917C1F7E82FF0E0E956FD4F6C
:10291000108210929502809396028AE1809394022D
:1029200081E08093930208951F920F920FB60F9249
:1029300011242F933F934F935F936F938F939F93A4
:10294000AF93BF93EF93FF938091910280FF0DC0EF
:10295000809194028150809394028F5F31F481E0E2
:102960008093930286E0809394028091930288235F
:1029700009F46AC040E050E0942FE0919502E40F22
:1029800080919602E81718F080919602E81BF0E01B
:10299000E956FD4FE081EF3F19F420E030E007C039
:1029A000F0E0EE0FFF1FEB56FF4F25913491969507
:1029B000E92FF0E0E451FF4F60E0DA01A170B07060
:1029C000822F8F709081109721F08295807F9F7069
:1029D00001C0907F892B80836F5F643039F035961A
:1029E00094E0369527959A95E1F7EACF4F5F5F4FD0
:1029F0004630510509F0C0CF809195022091960292
:102A000090E0069630E08217930729F480919102B6
:102A100082608093910280919502909196028F5FDF
:102A2000809395028150891719F481E08093950273
:102A300080919202882321F081E08093F40002C00B
:102A40001092F40010929302FF91EF91BF91AF9119
:102A50009F918F916F915F914F913F912F910F9027
:102A60000FBE0F901F9018958093920281E0809383
:102A7000930208950F931F93BC0107E912E0C80168
:102A80000E944815C8010E9449141F910F91089592
:102A9000FB01DC0105900D920020E1F70895FB0198
:102AA000DC0102C001900D9241505040D8F70895CA
:102AB000DC0101C06D9341505040E0F70895A0E063
:102AC000B0E0E5E6F5E10C944918FE013596619118
:102AD000719180913A0490913B04AF010E94A91535
:102AE0002096E2E00C9465180F931F93CF93DF9329
:102AF0008C01E0913A04F0913B04838181FF21C075
:102B0000C0E0D0E00DC0E0913A04F0913B04208594
:102B10003185BF01F9010995892B11F0CFEFDFEF66
:102B2000F80181918F01882371F7E0913A04F091C7
:102B30003B04208531858AE0BF01F9010995892B85
:102B400011F0CFEFDFEFCE01DF91CF911F910F9109
:102B50000895ABE0B0E0EFEAF5E10C9439183C01E0
:102B60002B015A01FC0117821682838181FD03C06B
:102B70006FEF7FEFC6C19AE0892E1E010894211CD9
:102B8000311CF3012381F20123FD859123FF819103
:102B90002F01882309F4B2C1853239F423FD8591D0
:102BA00023FF81912F01853229F490E0B3010E9427
:102BB0009C17E7CF982FFF24EE249924FFE1FF15FF
:102BC000D0F09B3269F09C3228F4903259F0933265
:102BD00091F40EC09D3249F0903369F441E024C075
:102BE00052E0F52A84E0F82A28C098E0F92A25C0A6
:102BF000E0E1FE2A22C0F7FC29C0892F80538A30E9
:102C000070F4F6FE05C0989C902C1124980E15C007
:102C1000E89CE02C1124E80EF0E2FF2A0EC09E3260
:102C200029F4F6FC6BC140E4F42A07C09C3619F481
:102C300050E8F52A02C0983649F4F20123FD959137
:102C400023FF91912F01992309F0B8CF892F855443
:102C5000833018F08052833038F444E050E0A40E02
:102C6000B51E5FE359830FC0933631F0933779F087
:102C7000933509F056C020C0F5018081898342E078
:102C800050E0A40EB51E610101E010E012C0F50194
:102C9000C080D180F6FC03C06FEF7FEF02C0692DCA
:102CA00070E042E050E0A40EB51EC6010E949117EC
:102CB0008C015FE7F52214C0F501C080D180F6FCDD
:102CC00003C06FEF7FEF02C0692D70E042E050E07B
:102CD000A40EB51EC6010E9486178C0150E8F52A85
:102CE000F3FE07C01AC080E290E0B3010E949C1777
:102CF000EA948E2D90E008171907A8F30EC0F6018C
:102D0000F7FC8591F7FE81916F0190E0B3010E947D
:102D10009C17E110EA94015010400115110579F754
:102D2000EAC0943611F0993669F5F7FE08C0F5014E
:102D3000208131814281538184E090E00AC0F50115
:102D4000808191819C01442737FD4095542F82E07A
:102D500090E0A80EB91E9FE6F92257FF09C05095D2
:102D60004095309521953F4F4F4F5F4FE0E8FE2A49
:102D7000CA01B901A1012AE030E00E94C817D82E8B
:102D8000D21840C0953729F41F2D1F7E2AE030E06D
:102D90001DC01F2D197F9F3661F0903720F49835A4
:102DA00009F0ACC00FC0903739F0983709F0A6C0D1
:102DB00004C028E030E00AC0106114FD146020E176
:102DC00030E004C014FD166020E132E017FF08C0B7
:102DD000F501608171818281938144E050E008C0F7
:102DE000F50180819181BC0180E090E042E050E0FB
:102DF000A40EB51EA1010E94C817D82ED2188FE7C5
:102E0000F82EF122F6FE0BC05EEFF522D91438F44D
:102E1000F4FE07C0F2FC05C08FEEF82202C01D2DA3
:102E200001C0192DF4FE0DC0FE01ED0DF11D8081D4
:102E3000803319F499EEF92208C01F5FF2FE05C035
:102E400003C08F2D867809F01F5F0F2DF3FC14C08F
:102E5000F0FE0FC01E1510F09D2C0BC09D2C9E0C7B
:102E6000911A1E2D06C080E290E0B3010E949C17CB
:102E70001F5F1E15C0F304C01E1510F4E11A01C037
:102E8000EE2404FF0FC080E390E0B3010E949C1782
:102E900002FF1DC001FD03C088E790E00EC088E579
:102EA00090E00BC0802F867891F001FF02C08BE28A
:102EB00001C080E2F7FC8DE290E0B3010E949C1714
:102EC00006C080E390E0B3010E949C179A94D91445
:102ED000C0F3DA94F101ED0DF11D808190E0B301B2
:102EE0000E949C17DD20A9F706C080E290E0B301A4
:102EF0000E949C17EA94EE20C1F743CEF30166814D
:102F00007781CB012B96E2E10C945518FC010590DA
:102F1000615070400110D8F7809590958E0F9F1FDB
:102F20000895FC016150704001900110D8F7809520
:102F300090958E0F9F1F08950F931F93CF93DF934C
:102F40008C01EB018B8181FF1BC082FF0DC02E81A4
:102F50003F818C819D812817390764F4E881F981CC
:102F60000193F983E88306C0E885F985802F0995E8
:102F7000892B31F48E819F8101969F838E8302C0BD
:102F80000FEF1FEFC801DF91CF911F910F910895AF
:102F9000FA01AA27283051F1203181F1E8946F938A
:102FA0006E7F6E5F7F4F8F4F9F4FAF4FB1E03ED030
:102FB000B4E03CD0670F781F891F9A1FA11D680FCE
:102FC000791F8A1F911DA11D6A0F711D811D911D01
:102FD000A11D20D009F468943F912AE0269F112476
:102FE0003019305D3193DEF6CF010895462F4770DA
:102FF000405D4193B3E00FD0C9F7F6CF462F4F7035
:10300000405D4A3318F0495D31FD4052419302D092
:10301000A9F7EACFB4E0A695979587957795679538
:10302000BA95C9F700976105710508959B01AC0138
:103030000A2E06945795479537952795BA95C9F75F
:10304000620F731F841F951FA01D089597FB092E03
:1030500007260AD077FD04D049D006D000201AF404
:10306000709561957F4F0895F6F7909581959F4FE4
:1030700008952F923F924F925F926F927F928F921C
:103080009F92AF92BF92CF92DF92EF92FF920F93F7
:103090001F93CF93DF93CDB7DEB7CA1BDB0B0FB601
:1030A000F894DEBF0FBECDBF09942A8839884888BE
:1030B0005F846E847D848C849B84AA84B984C88454
:1030C000DF80EE80FD800C811B81AA81B981CE0F4B
:1030D000D11D0FB6F894DEBF0FBECDBFED01089530
:1030E000EE0FFF1F0590F491E02D0994AA1BBB1B66
:1030F00051E107C0AA1FBB1FA617B70710F0A61BF8
:10310000B70B881F991F5A95A9F780959095BC0118
:08311000CD010895F894FFCFF2
:10311800485454502F312E3020323030204F4B0D30
:103128000A00436F6E74656E742D547970653A2089
:10313800746578742F68746D6C0D0A000D0A003C74
:1031480068313E48656C6C6F20576F726C643C2F19
:1031580068313E3C703E46726F6D20612073696D28
:10316800706C652068747470642E3C2F703E00008B
:10317800000000FFFFFFFFFFFFFFFFFFFF57616930
:1031880074656420666F72206E657764617461008F
:10319800416464696E67206E65696768626F722052
:1031A80077697468206C696E6B20616464726573FA
:1031B8007320253032783A253032783A2530327803
:1031C8003A253032783A253032783A253032780A42
:0231D8000000F5
:00000001FF
